:020000040800F2
:10000000E0060020B5010008BD010008BF0100089E
:10001000C1010008C3010008C5010008000000007C
:10002000000000000000000000000000C701000800
:10003000C901000800000000CB010008A90B00085E
:10004000CF010008CF010008CF010008CF01000850
:10005000CF010008CF010008CF010008CF01000840
:10006000CF010008CF010008CF010008CF01000830
:10007000CF010008CF010008CF010008CF01000820
:10008000CF010008CF010008CF010008CF01000810
:10009000CF010008CF010008CF010008CF01000800
:1000A000CF010008CF010008CF010008CF010008F0
:1000B000CF010008CF010008CF010008CF010008E0
:1000C000CF010008CF010008CF010008CF010008D0
:1000D000CF010008CF010008CF010008CF010008C0
:1000E000CF010008CF010008CF01000800F002F89E
:1000F00000F050F814A696E8000CB244B344DA4578
:1001000001D100F047F8BAE80F000FA696E83000DA
:10011000A5EB040504EB0607AAEB0704A7F101070A
:100120004FEA15154FEA3414A4F10104AC4201D38F
:1001300000F030F813F0010F18BFFB1A43F0010371
:1001400000F001F8DBE7184798180000B818000025
:10015000103A24BF78C878C1FAD8520724BF30C8F3
:1001600030C144BF04680C60704700007047000055
:100170000023002400250026103A28BF78C1FBD8B0
:10018000520728BF30C148BF0B6070471FB51FBD65
:1001900010B510BD00F0F1F81146FFF7F7FF00F0C1
:1001A00089FE00F00FF903B4FFF7F2FF03BC00F083
:1001B00017F900000948804709480047FEE7FEE7B5
:1001C000FEE7FEE7FEE7FEE7FEE7FEE7FEE7FEE707
:1001D00004480549054A064B70470000B90B000862
:1001E000ED000008E0000020E0060020E002002012
:1001F000E0020020032A40F2308010F0030C00F0EF
:10020000158011F8013BBCF1020F624498BF11F850
:1002100001CB00F8013B38BF11F8013BA2F1040209
:1002200098BF00F801CB38BF00F8013B11F0030381
:1002300000F04A80083AC0F0088051F8043B083AC0
:1002400051F804CBA0E80810F5E7121D5CBF51F887
:10025000043B40F8043BAFF30080D20724BF11F801
:10026000013B11F801CB48BF11F8012B24BF00F866
:10027000013B00F801CB48BF00F8012B70474FF05D
:1002800000020429C0F0128010F0030C00F050802E
:10029000CCF1040CBCF1020F18BF00F8012BA8BF71
:1002A00020F8022BA1EB0C0100F042B85FEAC17C00
:1002B00024BF00F8012B00F8012B48BF00F8012BE8
:1002C000704770477047704710B5203AC0F00B80F8
:1002D000B1E81850A0E81850B1E81850A0E818503C
:1002E000203ABFF4F5AF5FEA027C24BFB1E81850B2
:1002F000A0E8185044BF18C918C0BDE810405FEA14
:10030000827C24BF51F8043B40F8043B08BF70478F
:10031000D20728BF31F8023B48BF11F8012B28BF94
:1003200020F8023B48BF00F8012B70474FF0000255
:1003300000B5134694469646203922BFA0E80C50DB
:10034000A0E80C50B1F12001BFF4F7AF090728BFB6
:10035000A0E80C5048BF0CC05DF804EB890028BF32
:1003600040F8042B08BF704748BF20F8022B11F05B
:10037000804F18BF00F8012B7047754600F02CF82D
:10038000AE4605006946534620F00700854618B082
:1003900020B5FFF71DFFBDE820404FF000064FF0ED
:1003A00000074FF000084FF0000BAC46ACE8C00966
:1003B000ACE8C009ACE8C009ACE8C00921F007010D
:1003C0008D46704710B50446AFF300802046BDE867
:1003D0001040FFF7E8BE000000487047080000200A
:1003E00001491820ABBEFEE726000200704700005E
:1003F00083B00290029841F64011C0F201014843D7
:10040000019000200090FFE700980199884205DAEA
:10041000FFE7FFE7009801300090F5E703B0704771
:1004200080B50020022100F0EFFF80BD80B547F6C7
:100430001E1000F001F880BD80B5ADF51C7DADF853
:100440006E02BDF86E226846002141620162C16100
:10045000816141610161C160816042600160FF2092
:100460000DF24B120A92012300F0C4FE0A990DF11D
:1004700033000B9000F018FF01460B98ADF83010D8
:10048000BDF8301000F03AFC0DF51C7D80BD000079
:1004900080B547F62110FFF7CFFF80BD80B547F646
:1004A0001B10FFF7C9FF80BD41F20800C4F2010034
:1004B0000068C0F30010704780B500F057F940F2B3
:1004C0007801C2F200010870FFF7EEFF30B1FFE7DC
:1004D00000F090FA012000F0A7F805E000F090FA93
:1004E000002000F0A1F8FFE780BD000080B582B0D9
:1004F00000F03CF98DF8070000F068FA8DF806006E
:10050000FFF7D2FF8DF8050040F27000C2F2000044
:100510000068C82100F084FB08B9FFE781E040F2E1
:100520006C00C2F20000007858B9FFE79DF80500A2
:1005300030B1FFE700F05EFA012000F075F8FFE748
:1005400067E040F26C00C2F200000078012816D18A
:10055000FFE79DF8050030B9FFE700F051FA0020F1
:1005600000F062F80AE09DF8060030B1FFE7FFF7FF
:1005700095FF022000F058F8FFE7FFE748E040F25F
:100580006C00C2F200000078022822D1FFE79DF83B
:10059000060030B9FFE7FFF749FF042000F044F8F8
:1005A00016E09DF8070090B1FFE740F27800C2F234
:1005B0000000007858B9FFE700F022FAC820FFF7E2
:1005C00017FFFFF765FF032000F02EF8FFE7FFE7B6
:1005D0001DE040F26C00C2F200000078042815D142
:1005E000FFE740F27000C2F2000000684FF4FA61C9
:1005F00000F016FB48B1FFE700F002FAC820FFF751
:10060000F7FE002000F010F8FFE7FFE7FFE7FFE745
:10061000FFE79DF8070040F27801C2F20001087080
:10062000FFE702B080BD000080B582B08DF8070002
:100630009DF8070040F26C01C2F20001087000F062
:1006400071F840F27001C2F20001086002B080BD92
:1006500041F21801C4F20201086840F00400086089
:10066000086840F008000860086840F01000086062
:1006700040F60001C4F20101086820F00F00086094
:10068000086840F00800086040F60C02C4F201025D
:10069000106820F001001060086820F070400860C9
:1006A000086840F000400860106820F0800010608A
:1006B00041F20002C4F20102106820F470201060C0
:1006C000106840F40020106041F20C02C4F20102F4
:1006D000106820F010001060086820F0706008605A
:1006E000086840F000700860086820F47000086036
:1006F000086840F40010086040F60441C4F20101AB
:10070000086820F470200860086840F40030086031
:10071000086820F470000860086840F40010086061
:100720007047000040F27400C2F200000068704799
:1007300080B5FFF7F7FF40F26801C2F200010968D7
:10074000401AB0F5FA7F10D3FFE7FFF7EBFF40F256
:100750006801C2F20001086040F60C01C4F2010118
:10076000086880F020000860FFE780BD40F60800C0
:10077000C4F20100006800F00100704740F610412B
:10078000C4F201014FF4805008604FF4005008603B
:100790007047000082B00190009101980068B0F1AC
:1007A000804F54D1FFE741F21801C4F202010868FA
:1007B00040F00400086041F21C01C4F20201086824
:1007C00040F00100086040F60001C4F20101086831
:1007D00020F0F0000860086840F0B0000860019860
:1007E000016847200885009944F24020C0F20F00BC
:1007F000B0FBF1F001990968888501980168088BC0
:1008000040F4C040088301980168088B40F4006000
:10081000088301980168088C40F010000884019852
:10082000016840F2DC50088701980168088840F0B0
:100830008000088001980168888A40F00100888261
:1008400001980168088840F001000880FFE702B0C5
:100850007047000082B00190ADF80210BDF80200B0
:1008600001990968088702B07047000084B0002031
:10087000029041F20002C4F20202116841F4803198
:1008800011600390FFE703990020B0EB113F0FD1F7
:10089000FFE741F20000C4F2020000688003002874
:1008A00001D5FFE704E0FFE7039801300390EAE792
:1008B00041F20000C4F2020000688003002818D54D
:1008C000FFE741F20401C4F202010191086820F43B
:1008D00080300860086840F480300860086820F4C0
:1008E00070100860086840F4E01008600020029072
:1008F00029E041F20001C4F20201086820F48030CE
:100900000860086840F001000860FFE741F200005D
:10091000C4F2020000688007002801D4FFE7F5E771
:1009200041F20401C4F20201086820F4803008603A
:10093000086820F470100860086840F460100860CF
:1009400001200290FFE741F20401C4F2020100918C
:10095000086820F0F0000860086820F46050086023
:10096000086820F4E0600860086840F4806008606F
:1009700041F20001C4F20201086840F08070086092
:10098000FFE741F20000C4F2020000688001002885
:1009900001D4FFE7F5E741F20401C4F2020108685F
:1009A00020F003000860086840F002000860FFE7DC
:1009B00041F20400C4F20200006800F00C000828B4
:1009C00001D0FFE7F4E7029804B0704740F6080052
:1009D000C4F201000068C0B2C009704780B540F29F
:1009E0000000C2F200003221FFF7D4FE00F008F848
:1009F00080BD000080B540F2CC6000F007F880BDFB
:100A000080B54FF4966000F001F880BD80B582B0EB
:100A1000ADF80600BDF8061040F20000C2F200007A
:100A2000FFF718FF02B080BD80B500F001F880BD6F
:100A300084B000200390029041F20001C4F2020150
:100A4000086840F480300860FFE741F20000C4F21B
:100A50000200006800F40030029003980130039017
:100A6000FFE702990020019039B9FFE70398B0F53C
:100A7000A06018BF01200190FFE70198C00700287F
:100A8000E3D1FFE741F20000C4F2020000688003F6
:100A9000002803D5FFE70120029002E00020029029
:100AA000FFE70298012851D1FFE742F20001C4F2AA
:100AB0000201086840F010000860086820F0070094
:100AC0000860086840F00200086041F20401C4F2C6
:100AD000020100910868086008680860086840F42E
:100AE00080600860086820F47C100860086840F4A2
:100AF000E810086041F20001C4F20201086840F009
:100B000080700860FFE741F20000C4F20200006854
:100B10008001002801D4FFE7F5E741F20401C4F2A7
:100B20000201086820F003000860086840F0020035
:100B30000860FFE741F20400C4F20200006800F020
:100B40000C00082801D0FFE7F4E700E0FFE704B05D
:100B50007047000080B582B0009000980138B0F175
:100B6000807F03D3FFE70120019019E0009801384E
:100B70004EF21401CEF2000108604FF0FF300F2159
:100B800000F0F4F84EF21801CEF2000100200860E7
:100B90004EF21002CEF20002072111600190FFE731
:100BA000019802B080BD000040F27401C2F2000161
:100BB000086801300860704780B541F20002C4F255
:100BC0000202106840F00100106041F20401C4F21A
:100BD000020108680023CFF6FF0318400860106880
:100BE0004FF6FF73CFF6F66318401060106820F4DC
:100BF00080201060086820F4FE00086041F20801BF
:100C0000C4F202014FF41F000860FFF70DFF4EF61B
:100C10000851CEF200014FF00060086080BD000076
:100C200082B00190009140F27400C2F200000068AE
:100C30000199411A009A0020914228BF012002B078
:100C40007047000080B540F20400C2F20000006866
:100C500044F6D351C1F26201A0FB01108009FFF7F5
:100C600079FF80BD81B0009041F21801C4F2020109
:100C7000086840F00400086041F21C01C4F202015F
:100C8000086840F40030086040F60001C4F2010139
:100C9000086820F470600860086840F440700860DC
:100CA000086840F400700860086840F4006008605C
:100CB000086820F470400860086840F480400860CC
:100CC000009945F20010C0F22520B0FBF1F044F28B
:100CD0000841C4F20001088044F20C41C4F2000152
:100CE000088840F008000880088840F00400088068
:100CF000088840F40050088001B0704780B582B089
:100D00000190ADF802100020ADF80000FFE7BDF83B
:100D10000000BDF8021088420DDAFFE70198BDF827
:100D20000010405C00F00AF8FFE7BDF80000013059
:100D3000ADF80000EBE702B080BD000081B08DF897
:100D40000300FFE744F20040C4F200000088000600
:100D5000002801D4FFE7F5E79DF8030044F20441C1
:100D6000C4F20001088001B07047000082B08DF825
:100D7000070000919DF9070000280AD4FFE70098BA
:100D800000019DF907104EF20042CEF20002885495
:100D90000BE0009800019DF8071001F00F014EF6DE
:100DA0001452CEF200028854FFE702B070470000F0
:100DB00083B002908DF80710FFE79DF80710002020
:100DC000022900900BDBFFE702999DF80700084419
:100DD00010F8010CB0FA80F040090090FFE700988D
:100DE000C00730B1FFE79DF8070001388DF8070014
:100DF000E3E79DF8070003B07047000083B08DF86B
:100E00000B0001919DF80B000199098848408DF86D
:100E100003009DF8030080EA00108DF8030001999B
:100E200048789DF8032040EA022080EAC20080EA68
:100E30001210088003B0704780B584B0039002910F
:100E4000ADF8062002980090FFE7BDF80600411EAD
:100E5000ADF8061040B1FFE70098411C0091007802
:100E60000399FFF7CBFFF0E704B080BD80B582B0F7
:100E70000190ADF80210684600F014F8FFE7BDF8E5
:100E80000200411EADF8021040B1FFE70198411C7D
:100E9000019100786946FFF7B1FFF0E7BDF8000067
:100EA00002B080BD81B0009000994FF6FF700880BD
:100EB00001B0704780B582B000200190FFF7D6FCEA
:100EC000FFF7C6FBFFF75AFCFFF7BCFE4FF4E1301B
:100ED000FFF7C8FEFFF782FDFFF7A2FAFFF7ECFA73
:100EE000FFE7FFF703FBFFF723FCFAE710B586B037
:100EF0008C46864609980899CDF814E08DF813C001
:100F00008DF812208DF811308DF810108DF80F002B
:100F100005989DF813109DF812209DF811309DF84A
:100F200010E09DF80F40EC46CCF80840CCF804E007
:100F3000CCF80030002300F01BF906B010BD000013
:100F4000B0B58EB094468E46044614981399129A02
:100F50000D948DF833E08DF832C00B938DF82B2073
:100F60008DF82A108DF829000B98007BC0F3400003
:100F70008DF828009DF828100020C907059069B950
:100F8000FFE70B9801690020059039B1FFE70B9846
:100F90000069007800F001000590FFE7059800F077
:100FA00001008DF827009DF8270000F001000028BF
:100FB00018BF0D208DF826000A208DF825009DF819
:100FC0002800C00738B1FFE70D99FE208870062081
:100FD0008DF8250003E00D99FD208870FFE79DF84E
:100FE0002800C00720B1FFE79DF82B00049007E020
:100FF0000D980C309DF82A10FFF7DAFE0490FFE7F9
:1010000004980D99C8709DF833000D99C8719DF82A
:1010100032000D9908720D99002008719DF8270083
:10102000C00730B1FFE70D99087940F00100087161
:10103000FFE70D99002048710B9880790D99887110
:101040000B998879013088710D9880788DF81B0094
:101050000D98C0788DF81C009DF82800C00790B14D
:10106000FFE70D9880798DF81D000D98C0798DF8F7
:101070001E000D98007A8DF81F000D98B0F8090039
:101080008DF8200021E00D9800798DF81D000D9855
:1010900040798DF81E000D9880798DF81F000D980D
:1010A000C0798DF820000D98007A8DF821000D98F8
:1010B000B0F809008DF822000D9840898DF82300C2
:1010C0000D98C07A8DF82400FFE70DF11B00013068
:1010D0009DF82510013989B2FFF7C8FEADF8180058
:1010E0000D9800F10C01C27806A80390FFF7A4FE4A
:1010F00003999DF82900FFF781FEBDF818000D99AE
:10110000CA78114408739DF819000D9AD1781144DA
:101110004873BDF818000D9908809DF82700C00796
:10112000D0B1FFE70B980069DDF834C00CF58B7186
:101130009DF825300CF10C029CF803E002EB0E0444
:10114000EC46CCF80840CCF804E0CCF800200DF1D7
:101150001B0200F063FBFFE70D98C0789DF8251097
:1011600008449DF82610084402300EB0B0BD0000BF
:10117000B0B588B094468E4604460E980D990C9AE8
:1011800007948DF81BE08DF81AC08DF819308DF892
:1011900018208DF817108DF816009DF8190000F032
:1011A00019F8049007989DF81B109DF81A20049BCD
:1011B0009DF818C09DF817409DF81650EE46CEF8E1
:1011C0000850CEF80440CEF800C0FFF7B9FE08B0D2
:1011D000B0BD000081B08DF803009DF8030000EB66
:1011E000400140F27C00C2F2000000EBC10001B0FF
:1011F00070470000B0B590B094468E4604461D98E6
:101200001C981B981A981998189817981698159959
:10121000149A8DF83F408DF83EE0CDF838C08DF837
:1012200037308DF83620ADF834108DF8330017982C
:10123000039018980490199805901A9806901B9896
:1012400007901C9808901D980990BDF83400ADF8DF
:1012500028009DF837008DF82A009DF836008DF89B
:101260002B009DF833008DF82C000E980C3003A94C
:1012700021220292FEF7BEFF029B0E990020C87247
:101280004C20A1F809000E989DF83F109DF83E20D3
:10129000EC464FF0980ECCF804E0CCF80030FFF7A5
:1012A00025FE10B0B0BD000080B586B00590049159
:1012B0000498C0788DF8070004988078FE2831D112
:1012C000FFE700208DF80F0005208DF80E00049830
:1012D0008078059908709DF8070005994870049872
:1012E0008079059988700498C0790599C870049828
:1012F000007A059908710498B0F8090005994871B9
:1013000005980630049A02F10C01D278FEF772FFBC
:1013100005989DF80E1008440499C97808440130D6
:1013200002904EE004980C309DF80710FFF740FD46
:101330008DF8070009208DF80E0004988078059933
:1013400008709DF807000599487004980079059980
:101350008870049840790599C87004988079059937
:1013600008710498C079059948710498007A059924
:1013700088710498B0F809000599C87104984089EB
:10138000059908720498C07A0599487205980A3040
:1013900004990C319DF80720FEF72CFF05989DF865
:1013A0000E1008449DF8071008440130029004987C
:1013B000007900F00100002818BF0D208DF80F0003
:1013C000FFE7049800880299087004984078029911
:1013D00048709DF80F0001280ADBFFE702980230F1
:1013E000049901F58B719DF80F20FEF703FFFFE7CD
:1013F0009DF80E009DF8071008449DF80F10084452
:10140000033006B080BD000080B584B08DF80F00B9
:1014100002919DF80F00FFF7DDFE0190029802286F
:1014200006D3FFE70199087B00F0FD00087305E093
:101430000199087B40F002000873FFE704B080BD0B
:1014400010B5CDB04C904B914C9880684A904C9818
:10145000C06849904C98006948904C984069479002
:101460004C98806946904C98C06945904C98006AA9
:1014700044904C98406A439000200290FFE7029805
:101480000F280CDCFFE74B98029A50F8220003A9C2
:1014900041F82200FFE7029801300290EFE71020A8
:1014A0000290FFE702983F2822DCFFE7029A03A997
:1014B00001EB820050F8403C50F83CEC50F81CCC5A
:1014C00050F8084C4FEA744080EAF44080EA9420D7
:1014D00060444FEAFE1C8CEABE4C8CEADE0C604491
:1014E000184441F82200FFE7029801300290D9E742
:1014F00000200290FFE702983F2849DCFFE743986D
:10150000469B4FEAB31181EAF32181EA73610844F3
:1015100045991940449A9A4311440844029A41F665
:10152000E001C0F6000151F82210084403A951F867
:10153000221008440190DDF828C14FEABC0080EA7F
:101540007C3080EABC50499A0CEA0201489B0CEAC4
:10155000030C81EA0C011A40514008440090449861
:10156000439045984490469845904798019908447F
:10157000469048984790499848904A9849900198D1
:10158000009908444A90FFE7029801300290B2E7C0
:101590004A9A4C99886810448860499A4C99C8685E
:1015A0001044C860489A4C99086910440861479AE9
:1015B0004C99486910444861469A4C99886910448E
:1015C0008861459A4C99C8691044C861449A4C99FD
:1015D000086A10440862439A4C99486A1044486269
:1015E0004DB010BD80B598B017901691179800684F
:1015F000C0F3C50003900398C0F1770000F03F00EE
:101600000130029017980830019080208DF810006A
:1016100004A8009001304721FEF731FE0099179889
:101620000068029A0A44D07117980068000A029A6A
:101630000A44907117984088029A0A44507117988A
:10164000C078029A0A44107117984068029A0A44B6
:10165000D07017984068000A029A0A449070179850
:10166000C088029A0A4450701798C079029A885428
:101670001798029A083200F055F80198C078169928
:1016800008700198807816994870019840781699EA
:101690008870019800781699C8700198C0791699D9
:1016A0000871019880791699487118B080BD0000C2
:1016B00081B000900099002008600099486000996E
:1016C0004EF26760C6F60920886000994AF6856088
:1016D000CBF66730C86000994FF27230C3F66E40A7
:1016E000086100994FF23A50CAF24F504861009990
:1016F00045F27F20C5F20E108861009946F68C00F5
:10170000C9F60530C86100994DF6AB10C1F683707B
:10171000086200994CF61950C5F6E030486201B0F5
:101720007047000080B59CB01B901A9119921A98CE
:1017300018901B9800681790199A1B99086800EB7D
:10174000C20008601B9800681799884205D2FFE71D
:101750001B99486801304860FFE71798C0F3C5003F
:101760001690FFE71998002855D0FFE71698C0F1AA
:101770004000159019981599884203D2FFE71998EF
:101780001590FFE71B981699084428301899159A68
:10179000FEF730FD1599169808441690159918987B
:1017A0000844189015991998401A199016984028CD
:1017B00030D1FFE71B982830039000201490FFE7FA
:1017C00014980F281FDCFFE70398149900EB8100A1
:1017D0000290149904A800EB810001900298C0784F
:1017E00001990870029880780199487002984078B1
:1017F00001998870029800780199C870FFE71498E1
:1018000001301490DCE71B9804A9FFF719FE0020B3
:101810001690FFE7A6E71CB080BD000080B5A4B01D
:10182000844628982798DDF898E0CDF888C0219163
:1018300020928DF87F308DF87E00229828B1FFE746
:1018400022980078C00720B9FFE700208DF88F00AC
:1018500041E0229840782199087022998868C968E7
:10186000039102902199BDF80C00A1F8050002989F
:10187000C1F8010022998A68C868013240F100006D
:101880008A60C86005A80190FFF712FF01982299AD
:1018900010312022FFF746FF019820999DF87F2004
:1018A000FFF740FF019826999DF87E20FFF73AFF49
:1018B000019828990222FFF735FF01982199072204
:1018C000FFF730FF019821990731FFF78BFE0D20BC
:1018D0008DF88F00FFE79DF88F0024B080BD0000D9
:1018E000982F8A4291443771CFFBC0B5A5DBB5E98B
:1018F0005BC25639F111F159A4823F92D55E1CABFF
:1019000098AA07D8015B8312BE853124C37D0C558C
:10191000745DBE72FEB1DE80A706DC9B74F19BC1D4
:10192000C1699BE48647BEEFC69DC10FCCA10C24C4
:101930006F2CE92DAA84744ADCA9B05CDA88F976A8
:1019400052513E986DC631A8C82703B0C77F59BF12
:10195000F30BE0C64791A7D55163CA06672929143E
:10196000850AB72738211B2EFC6D2C4D130D3853DB
:1019700054730A65BB0A6A762EC9C281852C72929D
:10198000A1E8BFA24B661AA8708B4BC2A3516CC7CB
:1019900019E892D1240699D685350EF470A06A1004
:1019A00016C1A419086C371E4C774827B5BCB03453
:1019B000B30C1C394AAAD84E4FCA9C5BF36F2E68F1
:1019C000EE828F746F63A5781478C8840802C78C80
:1019D000FAFFBE90EB6C50A4F7A3F9BEF27871C683
:1019E000001A000800000020080000005001000854
:1019F000081A000808000020D8060000700100083E
:081A00000000004000A24A04AE
:04000005080001B539
:00000001FF
