:020000040800F2
:10000000B01F002089010008910100089301000839
:100010009501000897010008990100080000000000
:100020000000000000000000000000009B0100082C
:100030009D010008000000009F010008C51C000889
:10004000A3010008A3010008A3010008A301000800
:10005000A3010008A3010008A3010008A3010008F0
:10006000A3010008A3010008A3010008A3010008E0
:10007000A3010008A3010008A3010008A3010008D0
:10008000A3010008A3010008A3010008A3010008C0
:10009000A3010008A3010008A3010008A3010008B0
:1000A000A3010008A3010008A3010008A3010008A0
:1000B000A30100083D1D0008A3010008A3010008DA
:1000C000A3010008A3010008A3010008A301000880
:1000D000A3010008AD1D0008511E0008A30100087F
:1000E000A3010008A3010008A301000800F002F822
:1000F00000F03AF80AA090E8000C82448344AAF188
:100100000107DA4501D100F02FF8AFF2090EBAE885
:100110000F0013F0010F18BFFB1A43F0010318473B
:10012000884A0000A84A0000103A24BF78C878C165
:10013000FAD8520724BF30C830C144BF04680C60ED
:10014000704700000023002400250026103A28BF35
:1001500078C1FBD8520728BF30C148BF0B60704739
:100160001FB51FBD10B510BD00F01DF91146FFF7FA
:10017000F7FF02F0BDF800F03BF903B4FFF7F2FF20
:1001800003BC00F043F900000948804709480047D4
:10019000FEE7FEE7FEE7FEE7FEE7FEE7FEE7FEE737
:1001A000FEE7FEE704480549054A064B7047000094
:1001B000D51C0008ED000008B0190020B01F002079
:1001C000B01B0020B01B002040EA010310B59B07C4
:1001D0000FD1042A0DD310C808C9121F9C42F8D0B1
:1001E00020BA19BA884201D9012010BD4FF0FF3062
:1001F00010BD1AB1D30703D0521C07E0002010BD78
:1002000010F8013B11F8014B1B1B07D110F8013B03
:1002100011F8014B1B1B01D1921EF1D1184610BDE4
:10022000032A40F2308010F0030C00F0158011F822
:10023000013BBCF1020F624498BF11F801CB00F8FA
:10024000013B38BF11F8013BA2F1040298BF00F84E
:1002500001CB38BF00F8013B11F0030300F04A80E6
:10026000083AC0F0088051F8043B083A51F804CB32
:10027000A0E80810F5E7121D5CBF51F8043B40F8F8
:10028000043BAFF30080D20724BF11F8013B11F803
:1002900001CB48BF11F8012B24BF00F8013B00F847
:1002A00001CB48BF00F8012B70474FF00002042932
:1002B000C0F0128010F0030C00F05080CCF1040C60
:1002C000BCF1020F18BF00F8012BA8BF20F8022BC9
:1002D000A1EB0C0100F042B85FEAC17C24BF00F83A
:1002E000012B00F8012B48BF00F8012B7047704725
:1002F0007047704710B5203AC0F00B80B1E8185035
:10030000A0E81850B1E81850A0E81850203ABFF4FF
:10031000F5AF5FEA027C24BFB1E81850A0E818509E
:1003200044BF18C918C0BDE810405FEA827C24BFF2
:1003300051F8043B40F8043B08BF7047D20728BF80
:1003400031F8023B48BF11F8012B28BF20F8023BCF
:1003500048BF00F8012B70474FF0000200B513466C
:1003600094469646203922BFA0E80C50A0E80C50D5
:10037000B1F12001BFF4F7AF090728BFA0E80C5086
:1003800048BF0CC05DF804EB890028BF40F8042B7F
:1003900008BF704748BF20F8022B11F0804F18BFEC
:1003A00000F8012B7047754600F02CF8AE460500AA
:1003B0006946534620F00700854618B020B5FFF780
:1003C000F1FEBDE820404FF000064FF000074FF06F
:1003D00000084FF0000BAC46ACE8C009ACE8C0091F
:1003E000ACE8C009ACE8C00921F007018D467047B0
:1003F00010B50446AFF300802046BDE81040FFF77B
:10040000BCBE0000004870470800002001491820C9
:10041000ABBEFEE7260002007047000080B58AB040
:1004200008900791089818B1FFE7079820B9FFE7EF
:1004300000208DF827002DE00898007820B1FFE714
:1004400000208DF8270025E00020ADF80200FFE72E
:10045000BDF8020008994988884217DAFFE7089832
:10046000BDF8021008440179079A022001AB02F09E
:10047000EDFD20B1FFE701208DF827000AE0FFE73E
:10048000BDF802000130ADF80200E1E700208DF870
:100490002700FFE79DF827000AB080BD84B00390D5
:1004A0008DF80B100192ADF80230BDF80200B0F5E6
:1004B0008C7F05DDFFE74FF48C70ADF80200FFE79D
:1004C0009DF80B0003990870BDF80200039948805D
:1004D0000020ADF80000FFE7BDF80000BDF80210F5
:1004E00088420EDAFFE70198BDF80020805C03998E
:1004F00011440871FFE7BDF800000130ADF80000BD
:10050000EAE704B07047000080B584B084460798DD
:1005100006988DF80FC08DF80E108DF80D200293FF
:100520008DF807000620ADF802000799B720087083
:100530009DF80F00079948709DF80E0000F07F00AD
:10054000079988709DF80D000799C8709DF80700FD
:100550000799087107980121052201F073FD079999
:1005600048710020ADF80400FFE7BDF804009DF8D5
:100570000710884212DAFFE70298BDF80410405CC9
:100580000799BDF80220531CADF802308854FFE7EC
:10059000BDF804000130ADF80400E6E79DF807005F
:1005A00001280FDBFFE707989DF807108A1D062139
:1005B00001F048FD0799BDF80220531CADF8023048
:1005C0008854FFE7BDF8020004B080BD80B582B05A
:1005D0008DF8070041F6A810C2F200000088A8B903
:1005E000FFE79DF80700B72801D0FFE799E09DF8E5
:1005F000070041F6A813C2F200031A88511C1980A3
:1006000040F28411C2F2000188548AE09DF807107C
:1006100041F6A810C2F2000003885A1C028040F282
:100620008412C2F20002D1540088062841D1FFE7AB
:1006300040F28410C2F200004179009101210522AC
:1006400001F02AFD01460098884217D0FFE701F02B
:100650000DFA9DF80700B7280FD1FFE79DF80700B6
:1006600041F6A813C2F200031A88511C198040F207
:100670008411C2F200018854FFE752E040F2841076
:10068000C2F20000007938B9FFE740F67231C2F2D9
:100690000001062008800BE040F28410C2F2000046
:1006A0000079073040F67231C2F200010880FFE79E
:1006B000FFE741F6A810C2F200000088B0F5837F82
:1006C00003DBFFE701F0D2F92BE040F67230C2F213
:1006D0000000008828B3FFE741F6A810C2F200002E
:1006E000008840F67231C2F200010988884218DBA6
:1006F000FFE701F07FF888B1FFE741F6A810C2F2EA
:100700000000038840F28C20C2F2000040F2841204
:10071000C2F20002012100F09FFFFFE701F0A6F9FD
:10072000FFE702B080BD000080B5CCB08DF82F018E
:100730008DF82E114A928DF827319DF82F119DF8D2
:100740002E214A9B9DF82701EC460DF10F0ECDF8A6
:1007500008E0CCF804E0CCF80000CA20FFF7D4FE93
:1007600001460298ADF80C10BDF80C1001F038FBF2
:100770004CB080BD83B00290029841F64011C0F2A7
:1007800001014843019000200090FFE70098019983
:10079000884205DAFFE7FFE7009801300090F5E7AF
:1007A00003B0704780B5ADF5147D8DF84E0292917F
:1007B00000208DF8070000F0B1F80090FFE79DF8E9
:1007C000070078BBFFE741F2C400C2F200004BA96A
:1007D00000F0C8FE00F0A2F80099401A92998842F1
:1007E00004D9FFE700208DF84F021FE04BA802A9B3
:1007F000FFF714FE08B9FFE7E1E79DF82C0180B987
:10080000FFE79DF81310BDF8110040EA01409DF884
:100810004E12884204D1FFE701208DF80700FFE760
:10082000FFE7CCE701208DF84F02FFE79DF84F026C
:100830000DF5147D80BD000041F20800C4F20100F6
:100840000068C0F30010704741F21801C4F20201C1
:10085000086840F004000860086840F0080008607C
:10086000086840F01000086040F60001C4F2010181
:10087000086820F00F000860086840F00800086071
:1008800040F60C02C4F20102106820F00100106072
:10089000086820F070400860086840F00040086078
:1008A000106820F08000106041F20002C4F20102E2
:1008B000106820F470201060106840F40020106070
:1008C00041F20C02C4F20102106820F01000106026
:1008D000086820F070600860086840F000700860E8
:1008E000086820F470000860086840F40010086090
:1008F00040F60441C4F20101086820F47020086049
:10090000086840F400300860086820F4700008604F
:10091000086840F4001008607047000040F268006A
:10092000C2F200000068704740F60800C4F20100FF
:10093000006800F00100704780B5ADF6F81DCDF8F5
:10094000F409DDF8F4094088052801DCFFE778E3C5
:10095000DDF8F40980798DF8F309DDF8F409C07940
:100960008DF8F209DDF8F409007A8DF8F109DDF867
:10097000F4090A30CDF8EC099DF8F20981380146F6
:100980000D91062800F255830D99DFE811F007005C
:100990002100450069007C008800810141F2C4000B
:1009A000C2F2000000F0CEFD002041F28831FFF7D6
:1009B000F9FE60B1FFE700208DF8EB099DF8F3091F
:1009C00081210DF6EB120123FFF7AEFEFFE738E3BE
:1009D00041F2C400C2F2000000F0B4FD00F0C6FC19
:1009E000022041F28831FFF7DDFE60B1FFE7002011
:1009F0008DF8EA099DF8F30982210DF6EA12012328
:100A0000FFF792FE07E09DF8F309002319461A4606
:100A1000FFF78AFEFFE714E341F2C400C2F20000D0
:100A200000F090FD00F0F6FC002041F28831FFF765
:100A3000B9FE60B1FFE700208DF8E9099DF8F309E0
:100A400083210DF6E9120123FFF76EFE07E09DF802
:100A5000F309002319461A46FFF766FEFFE7F0E2A6
:100A6000DDF8EC0900788DF8E60900208DF8E7093B
:100A70008DF8E8099DF8F30984210DF6E6120323A9
:100A8000FFF752FEDDE200208DF8E5099DF8F3093D
:100A900085210DF6E5120123FFF746FED1E29DF810
:100AA000F109002808DCFFE79DF8F3090023194647
:100AB0001A46FFF739FEC4E2DDF8EC09007801467A
:100AC0000C91122809D0FFE70C9813283FD0FFE7BC
:100AD0000C98142800F0CB80D1E0DDF8EC194878B0
:100AE0008A78C97880F0420082F0570210430028CB
:100AF00018BF0120412918BF012040B1FFE79DF830
:100B0000F309002319461A46FFF70EFE99E2DDF8B5
:100B1000EC090079012803D1FFE700F075FC02E041
:100B200000F030FCFFE712208DF8E209DDF8EC0957
:100B300000798DF8E30900208DF8E4099DF8F309A8
:100B400086210DF6E2120323FFF7EEFD9FE0DDF8AC
:100B5000EC1948788A78C97880F0420082F0570210
:100B60001043002818BF0120412918BF012040B1BF
:100B7000FFE79DF8F309002319461A46FFF7D4FD55
:100B80005FE2DDF8EC09007901286FD1FFE700F0A2
:100B900029FC41F2C400C2F2000000F0D3FC4D2059
:100BA0004FF4FA61FFF7FEFD8DF8E10900208DF8A2
:100BB000C3089DF8E109012824D1FFE741F2C400F0
:100BC000C2F200000DF6C4010B9100F0CBFC0B98B3
:100BD0000DF5F461FFF722FC78B1FFE70DF5F46045
:100BE0000DF28C7102F0A0F89DF88E0720B9FFE796
:100BF00001208DF8C308FFE703E001208DF8C3084A
:100C0000FFE703E001208DF8C308FFE79DF8C30864
:100C1000A0B9FFE713208DF89B0701208DF89C07F2
:100C200002218DF89D178DF89E0700208DF89F07F3
:100C300000F03AFFC820FFF79DFD0EE013208DF86D
:100C40009B0700208DF89C070F218DF89D1701212F
:100C50008DF89E178DF89F07FFE79DF8F309862111
:100C60000DF29B720523FFF75FFD10E0FFE79DF893
:100C7000F309002319461A46FFF756FD07E09DF8D1
:100C8000F309002319461A46FFF74EFDFFE7FFE779
:100C90009DF8F109002808DCFFE79DF8F30900231F
:100CA00019461A46FFF740FDCBE1DDF8EC09007864
:100CB00001460A9101280AD0FFE70A98022800F0AD
:100CC0009C80FFE70A98032800F03D81A8E10020FE
:100CD000CDF84805FFE7DDF84805022833DCFFE7DB
:100CE00041F2C400C2F2000000F02CFC932041F25B
:100CF0008831FFF757FD90B1FFE741F2C400C2F21F
:100D000000000DF5CE61099100F02CFC09980DF260
:100D10004C51FFF783FB08B1FFE714E0FFE7DDF874
:100D20004805022808DBFFE79DF8F3090023194670
:100D30001A46FFF7F9FC84E1FFE7DDF848050130CA
:100D4000CDF84805C7E741F2C400C2F200000DF536
:100D5000CE61079100F006FC07980DF24C51089106
:100D6000FFF75CFB08980DF5A26101F0BDFFBDF82F
:100D70001A05ADF80E05BDF9180548F21F51C5F268
:100D8000EB1180FB0101480900EBD1708DF80D05D6
:100D900001208DF801059DF80F058DF802059DF8DD
:100DA0000E058DF803059DF833058DF80405042024
:100DB000CDF8FC04FFE7DDF8FC0409280DDCFFE7B3
:100DC000DDF8FC240DF2015100208854FFE7DDF826
:100DD000FC040130CDF8FC04EDE79DF80D058DF81D
:100DE0000B0500208DF80C059DF8F30987210DF205
:100DF00001520C23FFF798FC1AE10020AE90FFE7A8
:100E0000AE98022830DCFFE741F2C400C2F20000D5
:100E100000F098FB00F0ECFAFE2041F28831FFF779
:100E2000C1FC80B1FFE741F2C400C2F20000F8A9A2
:100E3000069100F097FB0698AFA9FFF7EFFA08B10B
:100E4000FFE711E0FFE7AE98022808DBFFE79DF817
:100E5000F309002319461A46FFF766FCF1E0FFE7A5
:100E6000AE980130AE90CBE741F2C400C2F2000070
:100E7000F8A9049100F076FB0498AFA90591FFF75B
:100E8000CDFA0598ABA901F0EDFF9DF8B4028DF8FD
:100E9000AB029DF8AB02102804DBFFE70F208DF8B2
:100EA000AB02FFE7AC98002102F0E3FE20B9FFE7B8
:100EB00000208DF8AA0212E0AC980021C4F2C821EB
:100EC00002F0DEFE20B9FFE764208DF8AA0205E0FB
:100ED000AC9802F023FF8DF8AA02FFE7FFE702209B
:100EE0008DF89D029DF8AB1241F020020029C8BF89
:100EF00011468DF89E12A690FFE7A69809280ADCF5
:100F0000FFE7A69A0DF29D2100208854FFE7A698DE
:100F10000130A690F1E79DF8AB12002000290146B0
:100F2000C8BF01218DF8A7129DF8AA128DF8A8124A
:100F30008DF8A9029DF8F30987210DF29D220D235A
:100F4000FFF7F2FB74E000201590FFE715980228E8
:100F500030DCFFE741F2C400C2F2000000F0F2FA18
:100F600000F04CFA022041F28831FFF71BFC80B1FF
:100F7000FFE741F2C400C2F200005FA9039100F054
:100F8000F1FA039816A9FFF749FA08B1FFE711E053
:100F9000FFE71598022808DBFFE79DF8F309002317
:100FA00019461A46FFF7C0FB4BE0FFE715980130E2
:100FB0001590CBE741F2C400C2F200005FA9019195
:100FC00000F0D0FA019816A90291FFF727FA0298CB
:100FD00010A901F069FF03208DF838009DF8430047
:100FE0008DF839009DF842008DF83A009DF84100D7
:100FF0008DF83B009DF840008DF83C001298000AE7
:101000008DF83D0012988DF83E0000208DF83F00CD
:101010009DF8F30987210EAA0823FFF785FB07E057
:101020009DF8F309002319461A46FFF77DFBFFE7F9
:10103000FFE79DF8F309002319461A46FFF774FBF2
:10104000FFE70DF6F81D80BD80B5ADF5147D8DF878
:101050004E02929100208DF80700FFF75FFC009090
:10106000FFE79DF8070078BBFFE741F2C400C2F23A
:1010700000004BA900F076FAFFF750FC0099401AE7
:101080009299884204D9FFE700208DF84F021FE0B3
:101090004BA802A9FFF7C2F908B9FFE7E1E79DF8FD
:1010A0002C0180B9FFE79DF81310BDF8110040EA4C
:1010B00001409DF84E12884204D1FFE701208DF8CF
:1010C0000700FFE7FFE7CCE701208DF84F02FFE7BD
:1010D0009DF84F020DF5147D80BD000080B540F6EF
:1010E0006E31C2F2000100200870FFF71DFC40F6CF
:1010F0007431C2F200010870FFF79EFB30B1FFE7C8
:1011000000F0C8FC012000F005F905E000F0CCFC7F
:10111000002000F0FFF8FFE780BD000080B5ADF5CE
:10112000187DFFF701FC8DF85F0200F0ABFC8DF835
:101130005E02FFF781FB8DF85D0241F6AC10C2F252
:1011400000000068C82100F00FFE08B9FFE7D1E0F9
:1011500040F67530C2F20000007858B9FFE79DF8FC
:101160005D0230B1FFE700F095FC012000F0D2F8FD
:10117000FFE7B7E040F67530C2F2000000780128C2
:101180002BD1FFE79DF85D0230B9FFE700F08CFC42
:10119000002000F0BFF81FE09DF85F0268B1FFE794
:1011A00040F67430C2F20000007830B9FFE700F07A
:1011B0007BFC002000F0AEF80DE09DF85E0248B127
:1011C000FFE700F021F9012000F098F8022000F07C
:1011D000A1F8FFE7FFE7FFE783E040F67530C2F2D2
:1011E0000000007802286AD1FFE79DF85E0248B946
:1011F000FFE700F0C7F8022000F080F8042000F0BC
:1012000089F85BE09DF85F02002856D0FFE740F6C2
:101210007430C2F20000007800284ED1FFE700F0E1
:10122000E1F841F2C400C2F2000000F08BF94D2059
:101230004FF4FA61FFF708FF8DF85C0200208DF88B
:101240003F019DF85C02012820D1FFE741F2C40074
:10125000C2F2000050A9039100F084F9039807A995
:10126000FFF7DCF868B1FFE707A804A901F07EFDED
:101270009DF8120020B9FFE701208DF83F01FFE73C
:1012800003E001208DF83F01FFE703E001208DF826
:101290003F01FFE79DF83F0130B9FFE700F004FC94
:1012A000C820FFF767FA07E00020029000F026F858
:1012B000029800F02FF8FFE7FFE7FFE710E040F6A5
:1012C0007530C2F200000078042808D1FFE7002042
:1012D000019000F013F8019800F01CF8FFE7FFE719
:1012E000FFE7FFE79DF85F0240F67431C2F20001AC
:1012F0000870FFE70DF5187D80BD000081B08DF806
:1013000003009DF8030040F66E31C2F20001087040
:1013100001B0704780B582B08DF807009DF80700D6
:1013200040F67531C2F200010870FFF7F7FA41F696
:10133000AC11C2F20001086002B080BD80B5C8B037
:10134000FFE740F28C20C2F2000001A900F04CF946
:1013500050B1FFE79DF80400012804D1FFE701A880
:10136000FFF7EAFAFFE7ECE748B080BD80B547F643
:101370001A1000F00DF880BD80B50020022101F0A8
:10138000B1FE80BD80B547F61E1000F001F880BDAB
:1013900080B5ADF51E7DADF87602BDF876226846C3
:1013A000002141620162C161816141610161C160ED
:1013B000816042600160FF2054AA0B92012301F07A
:1013C000F7FC0B990EA80C9001F090FD01460C98CB
:1013D000ADF83610BDF8361000F04EFD0DF51E7D4F
:1013E00080BD000080B547F62110FFF7D1FF80BD1A
:1013F00080B547F61C10FFF7CBFF80BD80B547F6E0
:101400001810FFF7C5FF80BD80B547F61B10FFF72A
:10141000BFFF80BD80B547F61910FFF7B9FF80BD4B
:1014200080B5D0B08DF83F0141F6A610C2F20000A1
:101430000088E0B9FFE79DF83F01FD2801D0FFE7F4
:101440007EE09DF83F0141F6A613C2F200031A8820
:10145000511C198040F26C01C2F2000188549DF8C1
:101460003F11012007AA01AB01F0F0FD68E041F651
:10147000A610C2F200000088B0F58C7F03DBFFE706
:1014800000F0E8FA5CE09DF83F1141F6A610C2F2C8
:10149000000003885A1C028040F26C02C2F2000273
:1014A000D15400880A2803D1FFE700F0A5FDFFE72B
:1014B0009DF83F11012007AA01AB01F0C7FD40B321
:1014C000FFE740F67030C2F200000088F0B1FFE79D
:1014D00041F6A610C2F20000008840F67031C2F258
:1014E00000010988884211D1FFE741F6A610C2F237
:1014F0000000038841F2C400C2F2000040F26C0216
:10150000C2F20002002100F0A7F8FFE700F0A2FA03
:1015100016E040F67030C2F20000008880B1FFE7AC
:1015200041F6A610C2F20000008840F67031C2F207
:1015300000010988884203DBFFE700F08BFAFFE730
:1015400050B080BD81B00090009808B9FFE706E078
:1015500072B6009800780099487062B6FFE701B053
:101560007047000080B586B00490039100208DF88C
:101570000B00049818B1FFE7039820B9FFE700209B
:101580008DF817002BE072B604984078049909781A
:1015900088421ED0FFE70498007818B9FFE70720BB
:1015A000019004E00498007801380190FFE7019869
:1015B0008DF80A000398049B9DF80A104FF48E7270
:1015C00001FB02310231FEF72BFE01208DF80B00EA
:1015D000FFE762B69DF80B008DF81700FFE79DF856
:1015E000170006B080BD000080B584B00290019164
:1015F00000208DF80300029818B1FFE7019820B988
:10160000FFE700208DF80F0021E072B602984078C5
:1016100002990978884214D0FFE70198029B597813
:101620004FF48E7201FB02310231FEF7F9FD029890
:10163000407800F045F80299487001208DF80300C9
:10164000FFE762B69DF803008DF80F00FFE79DF8F5
:101650000F0004B080BD000080B584B003908DF809
:101660000B100192ADF80230039808B9FFE725E0AE
:101670000398007800F024F88DF80100039A1078A0
:101680004FF48E7100FB012002309DF80B10019A7F
:10169000BDF80230FEF702FF9DF8010003990870C3
:1016A0000398007803994978884207D1FFE70398A7
:1016B000407800F005F803994870FFE704B080BD5A
:1016C00081B08DF803009DF8030001308DF8030010
:1016D0009DF80300082804DBFFE700208DF80300D5
:1016E000FFE79DF8030001B07047000040F610418D
:1016F000C4F201014FF4805008604FF400500860BC
:101700007047000082B00190009101980068B0F12C
:10171000804F54D1FFE741F21801C4F2020108687A
:1017200040F00400086041F21C01C4F202010868A4
:1017300040F00100086040F60001C4F201010868B1
:1017400020F0F0000860086840F0B00008600198E0
:10175000016847200885009944F24020C0F20F003C
:10176000B0FBF1F001990968888501980168088B40
:1017700040F4C040088301980168088B40F4006081
:10178000088301980168088C40F0100008840198D3
:10179000016840F2DC50088701980168088840F031
:1017A0008000088001980168888A40F001008882E2
:1017B00001980168088840F001000880FFE702B046
:1017C0007047000080B540F20000C2F200003221F4
:1017D000FFF798FF00F068F980BD000082B001902B
:1017E000ADF80210BDF8020001990968088702B03F
:1017F0007047000080B584B041F6A810C2F2000026
:101800000088052804DCFFE700208DF80F006DE05C
:1018100040F28410C2F200000078B72804D0FFE73D
:1018200000208DF80F0061E040F28410C2F2000049
:1018300080780006002804D5FFE700208DF80F000F
:1018400054E040F28410C2F200004179029101217B
:10185000052200F021FC01460298884204D0FFE7EF
:1018600000208DF80F0041E040F28410C2F2000029
:1018700000798DF80E009DF80E0060B9FFE741F683
:10188000A810C2F2000000880638B0FA80F04009C3
:101890008DF80F002AE041F6A810C2F2000000887F
:1018A0009DF80E100731884204D0FFE700208DF824
:1018B0000F001BE041F6A810C2F20000018840F2C0
:1018C0008410C2F20000014411F8011C01919DF83E
:1018D0000E108A1D062100F0DFFB01460198401A18
:1018E000B0FA80F040098DF80F00FFE79DF80F0077
:1018F00004B080BD84B00020029041F20002C4F226
:101900000202116841F4803111600390FFE70399EE
:101910000020B0EB113F0FD1FFE741F20000C4F20D
:10192000020000688003002801D5FFE704E0FFE71C
:10193000039801300390EAE741F20000C4F202008C
:1019400000688003002818D5FFE741F20401C4F2C3
:1019500002010191086820F480300860086840F4B2
:1019600080300860086820F470100860086840F44F
:10197000E01008600020029029E041F20001C4F26A
:101980000201086820F480300860086840F0010017
:101990000860FFE741F20000C4F20200006880071F
:1019A000002801D4FFE7F5E741F20401C4F2020187
:1019B000086820F480300860086820F4701008601F
:1019C000086840F46010086001200290FFE741F2CF
:1019D0000401C4F202010091086820F0F0000860E0
:1019E000086820F460500860086820F4E06008602F
:1019F000086840F48060086041F20001C4F202010E
:101A0000086840F080700860FFE741F20000C4F20F
:101A1000020000688001002801D4FFE7F5E741F2E9
:101A20000401C4F20201086820F00300086008689D
:101A300040F002000860FFE741F20400C4F2020037
:101A4000006800F00C00082801D0FFE7F4E70298D6
:101A500004B0704741F6A611C2F2000100200880D0
:101A600040F67031C2F200010880704741F6A811BB
:101A7000C2F200010020088040F67231C2F200017B
:101A80000880704740F60800C4F201000068C0B248
:101A9000C009704780B540F20000C2F2000040F279
:101AA000CC61FFF79BFE80BD80B540F20000C2F222
:101AB00000004FF49661FFF791FE80BD80B500F005
:101AC00001F880BD84B000200390029041F2000133
:101AD000C4F20201086840F480300860FFE741F278
:101AE0000000C4F20200006800F400300290039885
:101AF00001300390FFE702990020019039B9FFE718
:101B00000398B0F5A06018BF01200190FFE701988D
:101B1000C0070028E3D1FFE741F20000C4F2020051
:101B200000688003002803D5FFE70120029002E04F
:101B300000200290FFE70298012851D1FFE742F20E
:101B40000001C4F20201086840F010000860086853
:101B500020F007000860086840F00200086041F2C9
:101B60000401C4F202010091086808600868086076
:101B7000086840F480600860086820F47C10086001
:101B8000086840F4E810086041F20001C4F2020164
:101B9000086840F080700860FFE741F20000C4F27E
:101BA000020000688001002801D4FFE7F5E741F258
:101BB0000401C4F20201086820F00300086008680C
:101BC00040F002000860FFE741F20400C4F20200A6
:101BD000006800F00C00082801D0FFE7F4E700E0FF
:101BE000FFE704B07047000080B541F21C01C4F269
:101BF0000201086840F00200086040F22841C4F287
:101C0000000141F61F40088040F22C41C4F200015F
:101C100041F28730088040F22441C4F200010020E4
:101C2000088040F21041C4F20001088820F0010051
:101C3000088040F20C41C4F20001088840F0010025
:101C4000088040F20041C4F20001088840F0010021
:101C500008801D2000F04AFA80BD000040F60C010B
:101C6000C4F20101086880F020000860704700009D
:101C700080B582B0009000980138B0F1807F03D326
:101C8000FFE70120019019E0009801384EF214019D
:101C9000CEF2000108604FF0FF300F2100F056FA3D
:101CA0004EF21801CEF20001002008604EF2100240
:101CB000CEF20002072111600190FFE7019802B007
:101CC00080BD000040F26801C2F2000108680130E6
:101CD0000860704780B541F20002C4F20202106849
:101CE00040F00100106041F20401C4F202010868F2
:101CF0000023CFF6FF031840086010684FF6FF730B
:101D0000CFF6F66318401060106820F48020106051
:101D1000086820F4FE00086041F20801C4F20201E4
:101D20004FF41F000860FFF7C9FE4EF60851CEF2CF
:101D300000014FF00060086080BD000080B540F2F7
:101D40001040C4F200000088C00758B1FFE740F21D
:101D50001041C4F20001088820F001000880FFF75C
:101D60007DFFFFE780BD000082B00190009140F24E
:101D70006800C2F2000000680199411A009A002030
:101D8000914228BF012002B07047000080B540F2A8
:101D90000400C2F20000006844F6D351C1F26201AF
:101DA000A0FB01108009FFF763FF80BD80B543F6FB
:101DB0000000C4F201000088800600280FD5FFE76C
:101DC00040F28A21C2F200010120087043F60400AB
:101DD000C4F201000088C0B2FEF7F8FBFFE780BD47
:101DE00080B582B00190ADF802100020ADF800007F
:101DF000FFE7BDF80000BDF8021088420DDAFFE7EA
:101E00000198BDF80010405C00F00AF8FFE7BDF84B
:101E100000000130ADF80000EBE702B080BD00002B
:101E200081B08DF80300FFE743F60000C4F2010023
:101E300000880006002801D4FFE7F5E79DF80300BD
:101E400043F60401C4F20101088001B070470000AC
:101E500080B544F20040C4F20000008880060028EB
:101E600009D5FFE744F20440C4F200000088C0B284
:101E7000FFF7D6FAFFE780BD80B582B00190ADF8DC
:101E800002100020ADF80000FFE7BDF80000BDF82B
:101E9000021088420DDAFFE70198BDF80010405C9F
:101EA00000F00AF8FFE7BDF800000130ADF80000CF
:101EB000EBE702B080BD000081B08DF80300FFE7C2
:101EC00044F20040C4F2000000880006002801D45B
:101ED000FFE7F5E79DF8030044F20441C4F2000176
:101EE000088001B07047000080B582B0019041F2D7
:101EF0001801C4F20201086840F004000860086894
:101F000040F48040086041F21C01C4F202010868FC
:101F100040F40030086040F60401C4F20101086892
:101F200020F0F0000860086840F0B0000860086821
:101F300020F470600860086840F48060086040F633
:101F40000001C4F20101086820F4706008600868AC
:101F500040F430600860086820F470400860086849
:101F600040F480400860019945F20010C0F225203D
:101F7000B0FBF1F044F20841C4F20001088001997D
:101F80004AF20020C0F24A40B0FBF1F043F60801EB
:101F9000C4F20101088043F60C01C4F20101088873
:101FA00040F008000880088840F004000880088895
:101FB00040F020000880088840F40050088044F277
:101FC0000C41C4F20001088840F00800088008882D
:101FD00040F004000880088840F02000088008884D
:101FE00040F400500880252000F098F8262000F0EA
:101FF00095F802B080BD000081B041F6A610C2F293
:1020000000000088092801DCFFE719E040F26C00BD
:10201000C2F2000041780C31ADF802108078C007A0
:1020200030B1FFE7BDF802000D30ADF80200FFE768
:10203000BDF8020040F67031C2F200010880FFE7EF
:1020400001B0704783B00290ADF80610ADF80420DF
:1020500000208DF80300BDF80600ADF80000FFE792
:10206000BDF80000BDF80410884210DAFFE70298BE
:10207000BDF80010415C9DF8030048408DF8030056
:10208000FFE7BDF800000130ADF80000E8E79DF87B
:10209000030003B07047000083B00290ADF8061053
:1020A000ADF8042000208DF80300BDF80600ADF85F
:1020B0000000FFE7BDF80000BDF80410884210DA08
:1020C000FFE70298BDF80010415C9DF8030048400E
:1020D0008DF80300FFE7BDF800000130ADF8000007
:1020E000E8E79DF8030003B07047000081B08DF869
:1020F00003009DF9030000280ED4FFE79DF90310AB
:1021000001F01F02012090404A094EF20011CEF268
:10211000000141F82200FFE701B0704781B08DF85F
:1021200003009DF9030000280ED4FFE79DF903107A
:1021300001F01F02012090404A094EF20011CEF238
:10214000000141F82200FFE701B0704782B08DF82E
:10215000070000919DF9070000280AD4FFE70098C6
:1021600000019DF907104EF20042CEF200028854A1
:102170000BE0009800019DF8071001F00F014EF6EA
:102180001452CEF200028854FFE702B070470000FC
:1021900081B00090009988780130887001B0704754
:1021A00083B002908DF80710FFE79DF8071000201C
:1021B000022900900BDBFFE702999DF80700084415
:1021C00010F8010CB0FA80F040090090FFE7009889
:1021D000C00730B1FFE79DF8070001388DF8070010
:1021E000E3E79DF8070003B07047000083B08DF867
:1021F0000B0001919DF80B000199098848408DF86A
:1022000003009DF8030080EA00108DF80300019997
:1022100048789DF8032040EA022080EAC20080EA64
:102220001210088003B0704783B08DF80B00019145
:102230009DF80B000199098848408DF803009DF82E
:10224000030080EA00108DF80300019948789DF89A
:10225000032040EA022080EAC20080EA12100880CF
:1022600003B0704780B584B003900291ADF80620AA
:1022700002980090FFE7BDF80600411EADF8061079
:1022800040B1FFE70098411C009100780399FFF7E7
:10229000ADFFF0E704B080BD80B582B00190ADF82D
:1022A0000210684600F014F8FFE7BDF80200411E76
:1022B000ADF8021040B1FFE70198411C0191007890
:1022C0006946FFF793FFF0E7BDF8000002B080BD5C
:1022D00081B0009000994FF6FF70088001B0704700
:1022E00081B0009000994FF6FF70088001B07047F0
:1022F00080B582B000200190FFF7FCFAFEF7A4FA47
:10230000FFF7F4F9FFF742FDFFF76EFC4FF4E13001
:10231000FFF7EAFDFFF756FAFFF72EF8FEF7DEFEAD
:10232000FFF7C2FBFEF788FA8DF80300FFE79DF880
:10233000030098B9FFE7FEF77FFA78B1FFE7FEF7F1
:102340007BFA50B1FFE7FEF777FA8DF80300C8205B
:10235000FEF710FAFFF79EFBFFE7FFE740F28A2047
:10236000C2F20000007818B1FFE7FEF7E7FF02E0D5
:10237000FEF7D4FEFFE7DAE710B586B08C46864656
:1023800009980899CDF814E08DF813C08DF8122043
:102390008DF811308DF810108DF80F0005989DF80C
:1023A00013109DF812209DF811309DF810E09DF853
:1023B0000F40EC46CCF80840CCF804E0CCF80030F4
:1023C000002300F01BF906B010BD0000B0B58EB0C0
:1023D00094468E46044614981399129A0D948DF8DB
:1023E00033E08DF832C00B938DF82B208DF82A1036
:1023F0008DF829000B98007BC0F340008DF8280071
:102400009DF828100020C907059069B9FFE70B98CF
:1024100001690020059039B1FFE70B980069007849
:1024200000F001000590FFE7059800F001008DF82D
:1024300027009DF8270000F00100002818BF0D209C
:102440008DF826000A208DF825009DF82800C00789
:1024500038B1FFE70D99FE20887006208DF8250021
:1024600003E00D99FD208870FFE79DF82800C00764
:1024700020B1FFE79DF82B00049007E00D980C3089
:102480009DF82A10FFF78CFE0490FFE704980D9941
:10249000C8709DF833000D99C8719DF832000D99F0
:1024A00008720D99002008719DF82700C00730B10F
:1024B000FFE70D99087940F001000871FFE70D99D9
:1024C000002048710B9880790D9988710B99887953
:1024D000013088710D9880788DF81B000D98C078B8
:1024E0008DF81C009DF82800C00790B1FFE70D98FB
:1024F00080798DF81D000D98C0798DF81E000D981B
:10250000007A8DF81F000D98B0F809008DF82000B2
:1025100021E00D9800798DF81D000D9840798DF817
:102520001E000D9880798DF81F000D98C0798DF8E8
:1025300020000D98007A8DF821000D98B0F8090060
:102540008DF822000D9840898DF823000D98C07AEF
:102550008DF82400FFE70DF11B0001309DF82510D8
:10256000013989B2FFF798FEADF818000D9800F117
:102570000C01C27806A80390FFF774FE03999DF83A
:102580002900FFF733FEBDF818000D99CA781144F1
:1025900008739DF819000D9AD17811444873BDF85D
:1025A00018000D9908809DF82700C007D0B1FFE7FB
:1025B0000B980069DDF834C00CF58B719DF825305F
:1025C0000CF10C029CF803E002EB0E04EC46CCF894
:1025D0000840CCF804E0CCF800200DF11B0201F01B
:1025E00079F9FFE70D98C0789DF8251008449DF80B
:1025F0002610084402300EB0B0BD0000B0B588B05F
:1026000094468E4604460E980D990C9A07948DF8C0
:102610001BE08DF81AC08DF819308DF818208DF850
:1026200017108DF816009DF8190000F0E9FA0490D3
:1026300007989DF81B109DF81A20049B9DF818C060
:102640009DF817409DF81650EE46CEF80850CEF88B
:102650000440CEF800C0FFF7B9FE08B0B0BD0000DE
:1026600080B586B08DF817008DF81610049203938C
:102670009DF8170000F0B4FA02909DF8170000F0E2
:10268000CFFA014602989DF81620049BDDF80CC095
:10269000EE46CEF800C000F003F806B080BD0000A2
:1026A00080B588B0DDF828C0079006918DF8172016
:1026B00004930699002008700698C078014601919D
:1026C000102800F238820199DFE811F011001100A2
:1026D0004300750092009F00AC00B900C600EA00FC
:1026E000FD00190133017C017C01DC01DC019DF856
:1026F0001700FD2813D1FFE706990220C87007993B
:102700000020C8709DF81700079988700699087B0B
:1027100000F0FE000873079801F072FA18E09DF8C7
:102720001700FE2813D1FFE706990220C870079909
:102730000020C8709DF81700079988700699087BDB
:1027400040F001000873079801F05AFAFFE7FFE72D
:10275000F1E10698007870B1FFE7069948780130FA
:1027600048700698FFF714FD069900200870069936
:102770000120C8701EE09DF817000799C8700699DF
:102780000020087107989DF8171001F049FA069883
:10279000007BC00748B1FFE707990020087107993F
:1027A000487106990520C87003E006990320C87097
:1027B000FFE7FFE7BFE19DF8170007990871079849
:1027C000007910F0FE0F0AD0FFE70698FFF7E0FC53
:1027D00006990020087006990120C870ABE107989F
:1027E0009DF8171001F01CFA06990420C870A2E1A8
:1027F0009DF817000799487107989DF8171001F088
:102800000FFA06990520C87095E19DF81700079901
:10281000887107989DF8171001F002FA06990620B2
:10282000C87088E19DF817000799C87107989DF84E
:10283000171001F0F5F906990720C8707BE19DF8A3
:1028400017000799087207989DF8171001F0E8F92A
:1028500006990820C8706EE19DF8170007990022BC
:10286000CA72A1F8090007989DF8171001F0D8F96D
:102870000698007BC00770B1FFE70798C078012871
:1028800004DBFFE706990B20C87003E006990C20D3
:10289000C870FFE703E006990920C870FFE74AE126
:1028A0009DF81730079931F8090F8A7840EA03201C
:1028B0008A70088007989DF8171001F0B1F9069901
:1028C0000A20C87037E19DF81730079931F8090FD1
:1028D0008A781A438A70088007989DF8171001F0CB
:1028E0009FF90798C078012804DBFFE706990B20C1
:1028F000C87003E006990C20C870FFE71BE19DF843
:1029000017000799069B1A79114401321A7108734E
:1029100007989DF8171001F083F906980079079938
:10292000C978884204D1FFE706990C20C870FFE7F8
:1029300001E10798C17AB0F8090040EA014000F0CF
:102940007FF90390039848B9FFE706990E20C870F5
:102950009DF81700079981F8140132E00398007977
:102960008DF80B0007989DF80B1001F059F99DF8B0
:10297000170007990978884204D0FFE706990E20CE
:10298000C87003E006990D20C870FFE79DF8170096
:10299000079981F81401039890B1FFE70698007930
:1029A0000399897988420BDAFFE7079806990A7933
:1029B00010440C3003998979891AFDF776FCFFE7FA
:1029C000FFE7B8E00698C0780E2807D0FFE79DF82B
:1029D000170007994978884204D0FFE7069902203A
:1029E000087003E0069901200870FFE79DF81700C2
:1029F000079981F8150107980079C007A0B1FFE792
:102A000006980078022804D1FFE706991020C870C4
:102A100006E006990F20C870069900200870FFE7AD
:102A200006990D2048732CE006980069D8B1FFE79D
:102A300006980069006B60B1FFE7069801690A6BB0
:102A40000799CB7AB1F8091041EA0341904750B990
:102A5000FFE706980078022804D0FFE706990320D4
:102A60000870FFE7FFE706990120C870049838B1A5
:102A7000FFE70498079940F22312FDF7D1FBFFE727
:102A8000FFE758E09DF817000799069A527B891ACC
:102A900081F823010699487B013848730698407BEA
:102AA000002847D1FFE7069908694969079A00F0AD
:102AB00073FF8DF80A009DF80A00C007A8B9FFE768
:102AC00006980069006B80B1FFE7069801690A6B00
:102AD0000799CB7AB1F8091041EA0341904720B138
:102AE000FFE701208DF80A00FFE70698C07810285C
:102AF00004D1FFE70699022008700DE09DF80A0056
:102B0000C00720B1FFE706990120087003E006998D
:102B100003200870FFE7FFE706990120C8700498BA
:102B200038B1FFE70498079940F22312FDF778FBCC
:102B3000FFE7FFE7FFE706980078012811D1FFE7DC
:102B400007988079069948710698008920B9FFE7AF
:102B5000069900204881FFE706990889013008811D
:102B6000FFE7049828B1FFE70798C0780499C87078
:102B7000FFE70A98D0B1FFE70698C0780A99C870B5
:102B8000069800790A9908710698407901300A99E7
:102B90004871069800890A990881069880780A99F0
:102BA00048810698007B0A990873FFE70699002080
:102BB00088700698007802280ED1FFE7049850B17B
:102BC000FFE7079991F8140191F8151140EA0120E7
:102BD00004990880FFE7FFE70698007808B080BDF9
:102BE00081B08DF803009DF8030040F67632C2F202
:102BF000000240F2231100FB012001B070470000E9
:102C000081B08DF803009DF8030000EB400141F214
:102C10000400C2F2000000EBC10001B070470000E8
:102C200081B08DF803009DF8030000EB400141F2F4
:102C30006400C2F2000000EBC10001B07047000068
:102C400085B0039000200290E9200190FFE70298F0
:102C5000019988422AD2FFE702980199084401307D
:102C6000400800900398009901EB410243F6B061DF
:102C7000C0F6000151F82210884204D2FFE7009804
:102C800001380190E3E70398009901EB410243F614
:102C9000B061C0F6000151F82210884203D9FFE765
:102CA00000980290D3E700980290FFE7029800EBAB
:102CB000400143F6B060C0F6000050F821000399CF
:102CC000884203D0FFE7002004900AE0029800EB5E
:102CD000400143F6B060C0F6000000EB81000490B4
:102CE000FFE7049805B0704780B584B00390029167
:102CF0000398C078352804DCFFE70398C07800907B
:102D000002E036200090FFE700988DF80700029857
:102D10003621FDF7CAFA029803990C319DF8072075
:102D2000FDF77EFA04B080BD80B584B003900291B7
:102D30000398C078092804DCFFE70398C078009066
:102D400002E00A200090FFE700988DF80700029942
:102D50000020088148600860029803990C319DF8B2
:102D60000720FDF75DFA04B080BD000080B584B097
:102D7000039002910398C078092804DCFFE70398C8
:102D8000C078009002E00A200090FFE700988DF8DC
:102D900007000299002008814860086002980399A2
:102DA0000C319DF80720FDF73BFA04B080BD000010
:102DB000B0B590B094468E4604461D981C981B985A
:102DC0001A9819981898179816981599149A8DF8B2
:102DD0003F408DF83EE0CDF838C08DF837308DF8A3
:102DE0003620ADF834108DF83300179803901898FA
:102DF0000490199805901A9806901B9807901C98B3
:102E000008901D980990BDF83400ADF828009DF891
:102E100037008DF82A009DF836008DF82B009DF8BC
:102E200033008DF82C000E980C3003A92122029259
:102E3000FDF7F6F9029B0E990020C8724C20A1F80C
:102E400009000E989DF83F109DF83E20EC464FF08B
:102E5000980ECCF804E0CCF80030FFF78DFA10B0F3
:102E6000B0BD000080B584B0039002910398C07893
:102E7000082804DCFFE70398C078009002E00920EE
:102E80000090FFE700988DF8070002990020087273
:102E900048600860029803990C319DF80720FDF7FF
:102EA000BFF904B080BD000080B584B003900291EA
:102EB0000398C0780B2804DCFFE70398C0780090E3
:102EC00002E00C200090FFE700988DF807000299BF
:102ED0000020886048600860029803990C319DF8D2
:102EE0000720FDF79DF904B080BD000080B586B0D5
:102EF000059004910498C0788DF8070004988078B4
:102F0000FE2831D1FFE700208DF80F0005208DF855
:102F10000E0004988078059908709DF807000599BF
:102F2000487004988079059988700498C07905994B
:102F3000C8700498007A059908710498B0F80900DF
:102F40000599487105980630049A02F10C01D2786F
:102F5000FDF766F905989DF80E1008440499C978A4
:102F60000844013002904EE004980C309DF80710A0
:102F7000FFF716F98DF8070009208DF80E00049868
:102F80008078059908709DF80700059948700498A5
:102F9000007905998870049840790599C87004985B
:102FA0008079059908710498C07905994871049849
:102FB000007A059988710498B0F809000599C871DC
:102FC00004984089059908720498C07A0599487256
:102FD00005980A3004990C319DF80720FDF720F977
:102FE00005989DF80E1008449DF80710084401301C
:102FF00002900498007900F00100002818BF0D200D
:103000008DF80F00FFE70498008802990870049873
:103010004078029948709DF80F0001280ADBFFE70D
:1030200002980230049901F58B719DF80F20FDF78D
:10303000F7F8FFE79DF80E009DF8071008449DF88B
:103040000F100844033006B080BD000080B586B084
:103050008DF816008DF81510049203939DF8160054
:103060009DF81510049A039BFFF7FAFA8DF80B00F0
:103070009DF80B00022805D0FFE79DF80B00032800
:1030800026D1FFE79DF81600FFF7AAFD01909DF8F5
:103090001600FFF7C5FD00900098FFF779F800993A
:1030A0000020087000990120C8709DF81500FD28C7
:1030B0000AD1FFE700990220C87001990020C8706A
:1030C000019800F09DFDFFE700208DF8170004E057
:1030D0009DF80B008DF81700FFE79DF8170006B06C
:1030E00080BD000080B584B08DF80F0002919DF87E
:1030F0000F00FFF785FD01900298022806D3FFE735
:103100000199087B00F0FD00087305E00199087B38
:1031100040F002000873FFE704B080BD10B5CDB0E9
:103120004C904B914C9880684A904C98C06849905C
:103130004C98006948904C98406947904C98806939
:1031400046904C98C06945904C98006A44904C98C1
:10315000406A439000200290FFE702980F280CDCA1
:10316000FFE74B98029A50F8220003A941F8220089
:10317000FFE7029801300290EFE710200290FFE78E
:1031800002983F2822DCFFE7029A03A901EB8200A4
:1031900050F8403C50F83CEC50F81CCC50F8084C2F
:1031A0004FEA744080EAF44080EA942060444FEA99
:1031B000FE1C8CEABE4C8CEADE0C6044184441F8DC
:1031C0002200FFE7029801300290D9E70020029028
:1031D000FFE702983F2849DCFFE74398469B4FEA08
:1031E000B31181EAF32181EA7361084445991940DA
:1031F000449A9A4351400844029A44F6A811C0F6F2
:10320000000151F82210084403A951F82210084483
:103210000190DDF828C14FEABC0080EA7C3080EAEA
:10322000BC50499A0CEA0201489B0CEA030C81EA63
:103230000C011A405140084400904498439045982E
:10324000449046984590479801990844469048987C
:103250004790499848904A984990019800990844A5
:103260004A90FFE7029801300290B2E74A9A4C99DF
:10327000886810448860499A4C99C8681044C860AE
:10328000489A4C99086910440861479A4C994869D2
:1032900010444861469A4C99886910448861459A5F
:1032A0004C99C8691044C861449A4C99086A104402
:1032B0000862439A4C99486A104448624DB010BD68
:1032C00010B5CDB04C904B914C9880684A904C987A
:1032D000C06849904C98006948904C984069479064
:1032E0004C98806946904C98C06945904C98006A0B
:1032F00044904C98406A439000200290FFE7029867
:103300000F280CDCFFE74B98029A50F8220003A923
:1033100041F82200FFE7029801300290EFE7102009
:103320000290FFE702983F2822DCFFE7029A03A9F8
:1033300001EB820050F8403C50F83CEC50F81CCCBB
:1033400050F8084C4FEA744080EAF44080EA942038
:1033500060444FEAFE1C8CEABE4C8CEADE0C6044F2
:10336000184441F82200FFE7029801300290D9E7A3
:1033700000200290FFE702983F2849DCFFE74398CE
:10338000469B4FEAB31181EAF32181EA7361084455
:1033900045991940449A9A4351400844029A44F688
:1033A000A821C0F6000151F82210084403A951F8E1
:1033B000221008440190DDF828C14FEABC0080EAE1
:1033C0007C3080EABC50499A0CEA0201489B0CEA26
:1033D000030C81EA0C011A405140084400904498C3
:1033E00043904598449046984590479801990844E1
:1033F000469048984790499848904A984990019833
:10340000009908444A90FFE7029801300290B2E721
:103410004A9A4C99886810448860499A4C99C868BF
:103420001044C860489A4C99086910440861479A4A
:103430004C99486910444861469A4C9988691044EF
:103440008861459A4C99C8691044C861449A4C995E
:10345000086A10440862439A4C99486A10444862CA
:103460004DB010BD80B598B01790169117980068B0
:10347000C0F3C50003900398C0F1770000F03F004F
:103480000130029017980830019080208DF81000CC
:1034900004A8009001304721FCF707FF0099179816
:1034A0000068029A0A44D07117980068000A029ACC
:1034B0000A44907117984088029A0A4450711798EC
:1034C000C078029A0A44107117984068029A0A4418
:1034D000D07017984068000A029A0A4490701798B2
:1034E000C088029A0A4450701798C079029A88548A
:1034F0001798029A083200F0F5F80198C0781699EA
:10350000087001988078169948700198407816994B
:103510008870019800781699C8700198C07916993A
:103520000871019880791699487118B080BD000023
:1035300080B598B01790169117980068C0F3C50031
:1035400003900398C0F1770000F03F000130029033
:1035500017980830019080208DF8100004A8009082
:1035600001304721FCF7A1FE009917980068029AE4
:103570000A44D07117980068000A029A0A449071B0
:1035800017984088029A0A4450711798C078029A96
:103590000A44107117984068029A0A44D07017982C
:1035A0004068000A029A0A4490701798C088029AEC
:1035B0000A4450701798C079029A88541798029A52
:1035C000083200F00BF90198C0781699087001983C
:1035D00080781699487001984078169988700198FB
:1035E00000781699C8700198C079169908710198E9
:1035F00080791699487118B080BD000081B00090A4
:103600000099002008600099486000994EF26760B8
:10361000C6F60920886000994AF68560CBF66730C7
:10362000C86000994FF27230C3F66E40086100998D
:103630004FF23A50CAF24F504861009945F27F204C
:10364000C5F20E108861009946F68C00C9F6053067
:10365000C86100994DF6AB10C1F6837008620099FD
:103660004CF61950C5F6E030486201B070470000D2
:1036700081B000900099002008600099486000998E
:103680004EF26760C6F60920886000994AF68560A8
:10369000CBF66730C86000994FF27230C3F66E40C7
:1036A000086100994FF23A50CAF24F5048610099B0
:1036B00045F27F20C5F20E108861009946F68C0015
:1036C000C9F60530C86100994DF6AB10C1F683709C
:1036D000086200994CF61950C5F6E030486201B016
:1036E0007047000080B59CB01B901A9119921A98EF
:1036F00018901B9800681790199A1B99086800EB9E
:10370000C20008601B9800681799884205D2FFE73D
:103710001B99486801304860FFE71798C0F3C5005F
:103720001690FFE71998002855D0FFE71698C0F1CA
:103730004000159019981599884203D2FFE719980F
:103740001590FFE71B981699084428301899159A88
:10375000FCF766FD15991698084416901599189867
:103760000844189015991998401A199016984028ED
:1037700030D1FFE71B982830039000201490FFE71A
:1037800014980F281FDCFFE70398149900EB8100C1
:103790000290149904A800EB810001900298C0786F
:1037A00001990870029880780199487002984078D1
:1037B00001998870029800780199C870FFE7149801
:1037C00001301490DCE71B9804A9FFF7A7FC002048
:1037D0001690FFE7A6E71CB080BD000080B59CB046
:1037E0001B901A9119921A9818901B9800681790BC
:1037F000199A1B99086800EBC20008601B980068C2
:103800001799884205D2FFE71B9948680130486044
:10381000FFE71798C0F3C5001690FFE71998002836
:1038200055D0FFE71698C0F14000159019981599EA
:10383000884203D2FFE719981590FFE71B98169965
:10384000084428301899159AFCF7EAFC159916983F
:1038500008441690159918980844189015991998C5
:10386000401A19901698402830D1FFE71B9828304D
:10387000039000201490FFE714980F281FDCFFE747
:103880000398149900EB81000290149904A800EBAE
:10389000810001900298C0780199087002988078A0
:1038A00001994870029840780199887002980078D0
:1038B0000199C870FFE7149801301490DCE71B9859
:1038C00004A9FFF7FDFC00201690FFE7A6E71CB057
:1038D00080BD000080B5A4B0844628982798DDF804
:1038E00098E0CDF888C0219120928DF87F308DF836
:1038F0007E00229828B1FFE722980078C00720B9FF
:10390000FFE700208DF88F0041E022984078219950
:10391000087022998868C968039102902199BDF8BE
:103920000C00A1F805000298C1F8010022998A68EC
:10393000C868013240F100008A60C86005A80190A3
:10394000FFF75CFE0198229910312022FFF7CAFE92
:10395000019820999DF87F20FFF7C4FE01982699D1
:103960009DF87E20FFF7BEFE019828990222FFF7FE
:10397000B9FE019821990722FFF7B4FE0198219919
:103980000731FFF76FFD0D208DF88F00FFE79DF8E1
:103990008F0024B080BD000080B5ACB02A90299182
:1039A00028922A9820B9FFE701208DF8AF0023E183
:1039B000289802302790289800F58B70269026983A
:1039C000073025900BA80090FFF752FE00982A9927
:1039D00010312022FFF702FF009827990A22FFF7F3
:1039E000FDFE0098289A02F10C01D278FFF7F6FE4E
:1039F0000098289901F58A710222FFF7EFFE0098DE
:103A000026990722FFF7EAFE00980DF126010191A1
:103A1000FFF78EFD019825990622FCF7D5FB40B1F2
:103A2000FFE72A99022081F8340000208DF8AF00CA
:103A3000E2E0269800788DF81700002007900690A5
:103A40002698B0F80510ADF81C10D0F801000690CB
:103A5000299840B9FFE72A99032081F83400002013
:103A60008DF8AF00C8E00020ADF82400FFE7BDF8F6
:103A700024002999098888422CDAFFE72898C07920
:103A80002999BDF8242002EBC2021144C97888426A
:103A900019D1FFE72898007A2999BDF8242002EB74
:103AA000C2021144097988420DD1FFE79DF8170041
:103AB0002999BDF8242002EBC2021144897888427A
:103AC00001D1FFE706E0FFE7BDF824000130ADF8C3
:103AD0002400CCE7BDF8240029990988884245D103
:103AE000FFE729980088102808DBFFE72A990420BF
:103AF00081F8340000208DF8AF007DE0069907982A
:103B000048F68052C0F25B02521840F100002A9938
:103B10008B68C968D21A884108D2FFE72A99052024
:103B200081F8340000208DF8AF0065E02898C07956
:103B30002999BDF8242002EBC2021144C8702898CC
:103B4000007A2999BDF8242002EBC20211440871C1
:103B50009DF817002999BDF8242002EBC2021144F8
:103B60008870299908880130088020E0002003909F
:103B700002902998BDF8241001EBC1010844B0F867
:103B80000910ADF80C10D0F805000290069B0799BB
:103B9000029A0398D21A884108D3FFE72A9906208F
:103BA00081F8340000208DF8AF0025E0FFE7299868
:103BB000BDF8241001EBC10101442698B0F805209E
:103BC000A1F80920D0F80100C1F80500069B07996B
:103BD0002A988268C068D21A884106D2FFE7069800
:103BE000079A2A99CA608860FFE72A99012081F81C
:103BF00034008DF8AF00FFE79DF8AF002CB080BD1A
:103C000080B582B001900020ADF802000DF10200F5
:103C1000FEF766FBBDF802000199088002B080BD86
:103C200080B582B001908DF8031001980088ADF83E
:103C300000009DF803006946FEF7F6FABDF80000A3
:103C40000199088002B080BD10B500F033F80CBFB8
:103C50000120002010BD10B500F02CF814BF012089
:103C6000002010BD10B500F075F88CBF01200020B9
:103C700010BD10B500F06EF82CBF0120002010BD63
:103C800010B500F09BF894BF0120002010BD10B5C6
:103C900000F094F834BF0120002010BD401058BF40
:103CA000C0F14040491058BFC1F140418142EFF39B
:103CB0000080704750EA010C00F113801CF5000FE2
:103CC00058BFBCF5000F01D48842704707D710F5E4
:103CD000000F58BF11F5000F15D488427047894274
:103CE00070471CF5000F04D5BCF5000FF7D58142D5
:103CF00070474FF0807C1CEB400F38BF1CEB410F2E
:103D000001D28142704710B500F08CF8922449002E
:103D10004FF000504FF08051FFF7C0BF41000B0E35
:103D2000D3F19E0208D950F400034FEA032323FA8B
:103D300002F048BF4042704710B500F073F800BF72
:103D400049922480002070476FF0004282EA2000F0
:103D50007047000050EA010C00F113801CF5000FC1
:103D600058BFBCF5000F01D48842704707D710F543
:103D7000000F58BF11F5000F15D4884270478942D3
:103D800070471CF5000F04D5BCF5000FF7D5814234
:103D900070474FF0807C1CEB400F38BF1CEB410F8D
:103DA00001D28142704710B500F03CF892244900DE
:103DB0004FF080504FF00051FFF770BF50EA010CF8
:103DC00000F113801CF5000F58BFBCF5000F01D4A3
:103DD0008842704707D710F5000F58BF11F5000F44
:103DE00015D488427047894270471CF5000F04D5EE
:103DF000BCF5000FF7D5814270474FF0807C1CEB7B
:103E0000400F38BF1CEB410F01D28142704710B503
:103E100000F008F8922449004FF000504FF0805114
:103E2000FFF73CBF0EF1020E2EF0030E5EF8044BBE
:103E3000244204D44FEA4102B2F17F4F11D84FEA35
:103E40004003B3F17F4F0CD80ED14FEAD07C0CEB7E
:103E50004C0C0CF1020CB2F17F4F08BF4CEBD17C43
:103E600004E04FF0080C01E04FEAD17C0CEB4C036E
:103E700024FA03F404F00704B4F1040C06D20EEBA8
:103E8000840CBDE810404CF0010C6047DFE80CF0FA
:103E9000070802024FF00040A0F5800010BD084660
:103EA000420018BFD2F1807288BF00F0004010BD00
:103EB00000000000320909000000000001000000BD
:103EC0007C1F2B000000000002000000890C0C0089
:103ED0000000000004000000ED0E0E030C0D0000B9
:103EE00005000000D91C1C010000000006000000B5
:103EF0006803030000000000070000007720200096
:103F000000000000080000007524240000000000EC
:103F10000B00000059060601040000001400000018
:103F2000D614140302030000150000009F020203D0
:103F30000001000016000000DC191900000000005C
:103F400017000000A8171703040500001800000060
:103F5000181E3400000000001900000017656500FD
:103F6000000000001A000000AA161800000000005F
:103F70001B000000901A1D00000000001C00000043
:103F800043101000000000001D000000730E100020
:103F9000000000001E000000271C1C0000000000A4
:103FA0001F000000F620300000000000200000008C
:103FB000B91C1C000000000021000000681C1C004F
:103FC0000000000022000000ED16160000000000B6
:103FD00023000000F416160000000000240000007A
:103FE000DE1525000000000025000000D4060703B0
:103FF0000405000026000000090607030405000070
:1040000027000000FE2526032021000028000000D4
:10401000E604050302030000290000001C04040359
:10402000020300002A0000001C0212000000000031
:104030002B00000084020303000100002C0000009C
:10404000DD040903020300002D000000E802030361
:10405000000100002E0000000B0202000000000022
:104060002F00000099030803000100003000000049
:10407000290D15010C00000031000000270C140070
:1040800000000000320000004E252503121300003E
:1040900033000000C40405030203000036000000E2
:1040A0000F1B1B031819000037000000031919002B
:1040B000000000003D000000A7484800000000008C
:1040C0003E000000B71A1A00000000003F00000088
:1040D00077B5B5000000000040000000BFE1E1003E
:1040E0000000000041000000762A2A0000000000C5
:1040F0004200000094060603020300004300000093
:10410000150404000000000045000000F30B1E0130
:104110000A000000460000007C1226031011000077
:104120004900000026252603202100004A00000047
:1041300014141400000000004B0000009E23230311
:104140001E1F00004C000000982121031E1F0000CC
:104150004D0000008F030A03080900005000000012
:104160000E04040302030000510000006A1616004A
:104170000000000052000000312733032425000016
:104180005300000016252500000000005400000028
:104190008F35350332330000550000008C33330077
:1041A00000000000560000000535350332330000E2
:1041B0005700000096333300000000005900000053
:1041C000E71C1C00000000005A000000B73838004F
:1041D000000000005B0000003F2A2A0000000000F1
:1041E0005C00000036212100000000005D0000009E
:1041F0002F5151000000000064000000AF1A22009F
:10420000000000006500000066207500000000004E
:10421000660000009E20750000000000670000009E
:10422000D01439000000000068000000382074003D
:1042300000000000690000005D3E3F00000000003B
:104240006A0000008A2C2C00000000006B000000B7
:104250006C404100000000006C00000020545C0035
:10426000000000006D000000B90909000000000016
:104270006E00000054FEFE03010200006F0000000B
:10428000221012031011000070000000AE0C0C0090
:1042900000000000710000007C24270000000000E6
:1042A00072000000ED2C2C000000000073000000E4
:1042B0000440400000000000740000004C1618008C
:1042C00000000000750000008006060304050000E1
:1042D00076000000380E0E0000000000770000009D
:1042E000740C0C030A0B000078000000866161006A
:1042F0000000000079000000ED0202030001000050
:104300007A000000CB020203000100007B000000E5
:10431000FA717103000100007C000000572339008E
:10432000000000007D000000CB0606000000000039
:104330007E000000DC4F51034F5000007F00000062
:10434000192323000000000080000000E223230066
:1043500000000000810000002E1618000000000080
:10436000820000001D0D0D00000000008300000011
:10437000DFFFFF000000000084000000550E270052
:10438000000000008500000006121200000000007E
:1043900086000000E52B2B000000000087000000D5
:1043A000CB0808000000000088000000011616007D
:1043B0000000000089000000C30E10000000000093
:1043C0008A0000006D247800000000008B000000CF
:1043D000A82B2B03292A00008C000000B5292900F6
:1043E000000000008D0000002F20200000000000D1
:1043F0008E00000048F3F300000000008F00000072
:10440000830E100000000000900000007F5D5D0042
:1044100000000000920000006764640000000000DB
:10442000930000009A243600000000009400000071
:10443000B23C4E000000000095000000C81E3C0089
:1044400000000000A2000000BD08090000000000FC
:10445000C0000000242C360000000000E100000035
:10446000D041490000000000E6000000A32A2A0015
:1044700000000000E700000069282800000000009C
:10448000E8000000973F410000000000E900000044
:1044900023B6B60000000000EA00000096282800BD
:1044A00000000000EB000000B32A2A00000000001A
:1044B000F10000005A20200000000000F20000007F
:1044C00068343C0000000000F300000055353D0159
:1044D00034000000F40000005F0606000000000049
:1044E000F50000008202020000000000F60000005B
:1044F000B826260000000000F7000000511313004A
:1045000000000000F800000008FEFE0303040000A5
:10451000F9000000CC24240000000000FA00000094
:10452000311E1E0000000000FB000000AA12120055
:1045300000000000FC0000002C121200000000002F
:10454000FD0000005333360000000000FE000000B4
:104550002E0909000000000000010000472A2A037C
:1045600008090000010100008309090000000000A3
:1045700002010000BB20E80300010000030100006D
:104580005CEBED00000000000401000092050E004D
:104590000000000005010000B31B3D00000000000A
:1045A000060100000C1217000000000007010000C7
:1045B00085FFFF000000000008010000311C200002
:1045C00000000000090100001A10140000000000A3
:1045D0000A010000C1FFFF03020300000B010000FD
:1045E00023FFFF03020300000C0100000E0404037C
:1045F000020300000D0100006DD5D700000000008F
:104600000E0100003B131400000000000F01000029
:104610001634350000000000130100007E1F20004A
:104620000000000014010000123132000000000000
:10463000150100003E1E1E000000000018010000D1
:10464000462121000000000019010000300D0D007E
:10465000000000001A0100007B232303202100003A
:104660001B0100004A909500000000001C010000A2
:10467000632020031E1F00001D0100008928310354
:10468000262700001E010000D23539033233000016
:104690001F0100000117170314150000200100007E
:1046A000141717031415000022010000FB2E2E0022
:1046B00000000000230100000A393900000000005A
:1046C00027010000EA0C0C00000000002801000097
:1046D0009E292903242500002B010000136062009D
:1046E000000000002C010000D91616000000000098
:1046F0002D010000F33A3A000000000036010000EE
:104700001C11110000000000370100005F747400EC
:104710000000000040010000F31414030203000035
:1047200041010000580202030001000042010000A4
:10473000F395950000000000430100004E939303A1
:10474000000100004401000084929200000000007B
:104750004A010000179EA700000000004B01000066
:104760005BE6E900000000004C010000ECEFEF0008
:10477000000000004D010000E76D6D00000000002A
:104780004E010000480A3500000000004F01000003
:10479000E11818000000000050010000F55454001A
:1047A0000000000053010000C705050000000000E4
:1047B000540100006346460000000000590100005B
:1047C000D1151503020300005E010000E814FC008F
:1047D00000000000680100000B1919000000000033
:1047E000690100005D21210000000000720100004D
:1047F0004B576D0000000000730100000A1A1A00F8
:1048000000000000740100001A8C8C000000000001
:1048100075010000752A2A000000000077010000E1
:10482000FB8C8C000000000078010000C708080025
:10483000000000007C010000E814140000000000EB
:1048400081010000938585030203000082010000BE
:10485000841010030405000083010000044848038D
:104860000405000084010000082525032021000024
:10487000860100009CEEF000000000008B010000AB
:1048800000D4D400000000008C01000032A0A00081
:10489000000000008D010000B66C6C0000000000FC
:1048A000900100006EFEFE0304050000910100006F
:1048B000B7060603040500009A010000A035350084
:1048C000000000009B0100006A03030000000000DC
:1048D0009C01000021060603040500009D01000064
:1048E0004D07070304050000B3010000862E2E00CB
:1048F00000000000B4010000C10909000000000030
:10490000B50100001E01010000000000B801000018
:104910004223230000000000282300007189890041
:10492000000000002D23000075222200000000007E
:1049300064320000722C2C0300010000653200007C
:10494000FE3B3B031E1F0000663200008C35350322
:104950000405000067320000F92E2E03000100005C
:10496000683200004D3636031C1D0000693200001D
:10497000312B2B0300010000733200005EF9F903B4
:1049800000010000763200008B333300000000008D
:104990007732000007121203101100007832000075
:1049A0001405050000000000982F8A4291443771D9
:1049B000CFFBC0B5A5DBB5E95BC25639F111F159A2
:1049C000A4823F92D55E1CAB98AA07D8015B8312E4
:1049D000BE853124C37D0C55745DBE72FEB1DE8090
:1049E000A706DC9B74F19BC1C1699BE48647BEEFBF
:1049F000C69DC10FCCA10C246F2CE92DAA84744A4A
:104A0000DCA9B05CDA88F97652513E986DC631A8BF
:104A1000C82703B0C77F59BFF30BE0C64791A7D59E
:104A20005163CA0667292914850AB72738211B2E26
:104A3000FC6D2C4D130D385354730A65BB0A6A760E
:104A40002EC9C281852C7292A1E8BFA24B661AA81A
:104A5000708B4BC2A3516CC719E892D1240699D62A
:104A600085350EF470A06A1016C1A419086C371EA3
:104A70004C774827B5BCB034B30C1C394AAAD84E81
:104A80004FCA9C5BF36F2E68EE828F746F63A578BC
:104A90001478C8840802C78CFAFFBE90EB6C50A44F
:104AA000F7A3F9BEF27871C6982F8A429144377104
:104AB000CFFBC0B5A5DBB5E95BC25639F111F159A1
:104AC000A4823F92D55E1CAB98AA07D8015B8312E3
:104AD000BE853124C37D0C55745DBE72FEB1DE808F
:104AE000A706DC9B74F19BC1C1699BE48647BEEFBE
:104AF000C69DC10FCCA10C246F2CE92DAA84744A49
:104B0000DCA9B05CDA88F97652513E986DC631A8BE
:104B1000C82703B0C77F59BFF30BE0C64791A7D59D
:104B20005163CA0667292914850AB72738211B2E25
:104B3000FC6D2C4D130D385354730A65BB0A6A760D
:104B40002EC9C281852C7292A1E8BFA24B661AA819
:104B5000708B4BC2A3516CC719E892D1240699D629
:104B600085350EF470A06A1016C1A419086C371EA2
:104B70004C774827B5BCB034B30C1C394AAAD84E80
:104B80004FCA9C5BF36F2E68EE828F746F63A578BB
:104B90001478C8840802C78CFAFFBE90EB6C50A44E
:104BA000F7A3F9BEF27871C6C84B000800000020D8
:104BB0000800000028010008D04B00080800002071
:104BC000A81F0000440100080000004000A24A04A1
:040000050800018965
:00000001FF
